:100000000C9462000C948A000C948A000C948A0070
:100010000C948A000C948A000C948A000C948A0038
:100020000C948A000C948A000C948A000C948A0028
:100030000C948A000C948A000C948A000C948A0018
:100040000C94540A0C948A000C948A000C948A0034
:100050000C948A000C948A000C948A000C948A00F8
:100060000C949E0A0C948A000000000024002700D3
:100070002A0000000000250028002B0000000000DE
:1000800023002600290004040404040404040202DA
:100090000202020203030303030301020408102007
:1000A0004080010204081020010204081020000012
:1000B0000008000201000003040700000000000027
:1000C0000000BD0B11241FBECFEFD8E0DEBFCDBFB7
:1000D00011E0A0E0B1E0E6E6FEE102C005900D927D
:1000E000AC3BB107D9F722E0ACEBB1E001C01D9207
:1000F000A53CB207E1F710E0C2E6D0E004C02197CA
:10010000FE010E94170FC136D107C9F70E94150CD6
:100110000C94310F0C9400009091360280913502BE
:100120002FEF3FEF981748F4E92FF0E0EB5EFD4F1B
:10013000208130E09F5F90933602C901089590912D
:100140003602809135022FEF3FEF981748F4E92FE0
:10015000F0E0EB5EFD4F208130E09F5F9093360230
:10016000C9010895833081F028F4813099F08230FC
:10017000A9F008958730A9F08830C9F08430B1F42F
:10018000809180008F7D03C0809180008F77809365
:100190008000089584B58F7784BD089584B58F7DE0
:1001A000FBCF8091B0008F778093B000089580914D
:1001B000B0008F7DF9CFCF93DF93282F30E0F90186
:1001C000E255FF4F8491F901E656FF4FD491F901B2
:1001D000EA57FF4FC491CC23A1F081110E94B200D5
:1001E000EC2FF0E0EE0FFF1FE458FF4FA591B49104
:1001F000EC91ED2381E090E009F480E0DF91CF9174
:10020000089580E090E0FACF1F93CF93DF93282FDB
:1002100030E0F901E255FF4F8491F901E656FF4FB6
:10022000D491F901EA57FF4FC491CC23A9F0162FBE
:1002300081110E94B200EC2FF0E0EE0FFF1FEE588C
:10024000FF4FA591B4918FB7F894EC91111108C0AC
:10025000D095DE23DC938FBFDF91CF911F9108955E
:10026000DE2BF8CFCF93DF9390E0FC01E656FF4FF3
:1002700024918A579F4FFC0184918823D1F090E00C
:10028000880F991FFC01E859FF4FA591B491FC011B
:10029000EE58FF4FC591D49161110EC09FB7F894ED
:1002A0008C91E22FE0958E238C932881E223E883C2
:1002B0009FBFDF91CF9108958FB7F894EC91E22B17
:1002C000EC938FBFF6CF3FB7F894809111029091D5
:1002D0001202A0911302B091140226B5A89B05C08A
:1002E0002F3F19F00196A11DB11D3FBFBA2FA92FB5
:1002F000982F8827BC01CD01620F711D811D911DB2
:1003000042E0660F771F881F991F4A95D1F708951D
:100310008F929F92AF92BF92CF92DF92EF92FF9215
:100320004B015C010E9463016B017C010E9463012F
:100330006C197D098E099F09683E734081059105FE
:10034000A8F321E0821A9108A108B10888EEC80E2E
:1003500083E0D81EE11CF11C81149104A104B104B6
:1003600029F7FF90EF90DF90CF90BF90AF909F90D4
:100370008F90089508950895AF92BF92CF92DF9223
:10038000EF92FF920F931F93CF93DF936C017B014A
:100390008B01040F151FEB015E01AE18BF08C017DB
:1003A000D10759F06991D601ED91FC910190F0814E
:1003B000E02DC6010995892B79F7C501DF91CF9111
:1003C0001F910F91FF90EF90DF90CF90BF90AF9073
:1003D0000895FC0180810E94DB0021E0892B09F453
:1003E00020E0822F0895EF92FF920F931F93CF93F7
:1003F000DF93EC017B0188810E94DB008C018A8104
:100400008017110651F00115110511F4F701099536
:1004100081E0012B09F480E08A83DF91CF911F9165
:100420000F91FF90EF90089508952091DD01260F20
:100430003327331F21323105ECF420915D02FC019A
:1004400090E080E0243069F082E00895A091DD0121
:100450002191AC0143545E4FA40FB52FB11D2C93D5
:100460000196861798F38091DD01680F6093DD0196
:1004700080E0089581E0089510925D0281E080930C
:100480005C021092370261E082E10E94040161E0A7
:1004900083E10E940401E9EBF0E080818E7F80839C
:1004A00080818D7F808388E48093B80085E4809389
:1004B000BC000895CF93DF9391E09093BC01882313
:1004C000B9F0C091B800D091BA008091BC008A7B8D
:1004D0008093BC0060E082E10E94040160E083E15F
:1004E0000E9404010E943C02D093BA00C093B8005D
:1004F000DF91CF910895CF92DF92EF92FF920F9309
:100500001F93CF93DF93D091860281E0D13208F020
:100510009CC0C09185020E9463016B017C018091A7
:100520005D0281116CC082E080935D0281E0809366
:100530005C028FEF80935B0210925A02D0935902B3
:10054000A5E6B2E0E9E3F2E080E0D8138DC01092B6
:10055000380280913802CC0FC82BC09338028091AA
:100560003702813009F084C0109237020E94630183
:100570006B017C01809138028093BB0080915F0207
:1005800090916002A0916102B0916202892B8A2B46
:100590008B2BA1F00E94630100915F021091600219
:1005A00020916102309162026C197D098E099F09C8
:1005B000061717072807390708F442C08091BC00C6
:1005C00083FDD8CF85EC8093BC000E9463016B0152
:1005D0007C0180915D02823009F44CC080915B0205
:1005E0008F3F09F469C080915B02803209F466C0D4
:1005F00080915B02803309F463C084E026C080915F
:100600005F0290916002A0916102B0916202892B19
:100610008A2B8B2B09F483CF0E94630100915F0228
:100620001091600220916102309162026C197D0983
:100630008E099F09061717072807390708F06FCF9B
:1006400080915E020E945A0285E01092640210922C
:10065000860210926302DF91CF911F910F91FF905C
:10066000EF90DF90CF9008959D9191938F5F6DCF24
:1006700085EEA9CF80915F0290916002A091610206
:10068000B0916202892B8A2B8B2B09F4A2CF0E9496
:10069000630100915F02109160022091610230912C
:1006A00062026C197D098E099F0906171707280732
:1006B000390708F08ECFC4CF80E0C7CF82E0C5CF26
:1006C00083E0C3CF0895E091360280913502E817A8
:1006D00030F4F0E0EB5EFD4F808190E008958FEF05
:1006E0009FEF08958091350290913602891B990BF6
:1006F0000895CF92DF92EF92FF920F931F93CF93C3
:10070000DF937C01CB018A0120916302222389F0CF
:10071000EB016B01C40ED51ECC15DD0569F06991A6
:10072000D701ED91FC910190F081E02DC701099571
:10073000F3CF642F0E941502C801DF91CF911F9162
:100740000F91FF90EF90DF90CF900895CF93DF93BC
:100750001F92CDB7DEB76983209163022223F9F09F
:1007600020918602203258F021E030E0FC013383F2
:10077000228390E080E00F90DF91CF9108958091E7
:100780006402E82FF0E0EB59FD4F998190838F5F71
:10079000809364028093860281E090E0ECCF61E078
:1007A000CE0101960E941502F7CF682F87E892E0EC
:1007B0000C94A603FC01248131E030936302209362
:1007C000850210926402109286028485862B90E046
:1007D0000E94D5030C947B0290E080E00895809104
:1007E000040290910502019797FD05C090930502C0
:1007F0008093040208958BE390E0F8CF8091040287
:100800009091050201968C3391052CF4909305028A
:100810008093040208951092050210920402089534
:100820008091060290910702019797FD05C0909371
:1008300007028093060208958BE390E0F8CF809141
:1008400006029091070201968C3391052CF4909347
:100850000702809306020895109207021092060282
:1008600008958091080290910902019797FD05C0B3
:100870009093090280930802089587E190E0F8CFF1
:1008800080910802909109020196883191052CF41B
:100890009093090280930802089510920902109221
:1008A000080208958091390190913A010197181634
:1008B00019062CF490933A0180933901089587E04A
:1008C00090E0F8CF8091390190913A0101968830FB
:1008D00091052CF490933A0180933901089581E0B9
:1008E00090E0F8CF80913F01909140010197181658
:1008F00019062CF49093400180933F01089583E6FC
:1009000090E0F8CF80913F019091400101968436AC
:1009100091052CF49093400180933F01089581E06C
:1009200090E0F8CF80913D0190913E01019718161B
:1009300019062CF490933E0180933D0108958CE0BC
:1009400090E0F8CF80913D0190913E0101968D306D
:1009500091052CF490933E0180933D01089581E030
:1009600090E0F8CF80913B0190913C0101971816DF
:1009700019062CF490933C0180933B0108958FE17C
:1009800090E0F8CF80913B0190913C01019680323C
:1009900091052CF490933C0180933B01089581E0F4
:1009A00090E0F8CF8F929F92AF92BF920F931F93D8
:1009B000CF93DF93CDB7DEB7A1970FB6F894DEBF24
:1009C0000FBECDBF19A2423008F44AE08E010F5D80
:1009D0001F4F842E912CB12CA12CA50194010E94B3
:1009E000F50EE62FB901CA01EA3044F5E05DD80101
:1009F000EE938D01232B242B252B79F790E080E0BB
:100A0000109769F0FD0101900020E9F73197AF01DF
:100A10004A1B5B0BBD0188EB92E00E94BC01A196D2
:100A20000FB6F894DEBF0FBECDBFDF91CF911F91FF
:100A30000F91BF90AF909F908F900895E95CD7CFB2
:100A4000FC0101900020E9F73197AF01481B590BD9
:100A5000BC0188EB92E00C94BC018F929F92AF9204
:100A6000BF92CF92DF92EF92FF920F931F93CF939B
:100A7000DF9380919C0291E09093630280938502C2
:100A8000109264021092860290E080E00E94D503EA
:100A90000E947B028091A70203E110E0813011F4F3
:100AA00008E010E0D0919C020E9463016B017C0180
:100AB00080915D02811166C0C02F81E080935D024C
:100AC00080935C029FEF90935B0210925A02900F0A
:100AD000909359028093380280913802DD0FD82B11
:100AE000D093380280913702813009F0F5C010921E
:100AF00037020E9463016B017C0180913802809370
:100B0000BB0080915F0290916002A0916102B09160
:100B10006202892B8A2B8B2BA1F00E9463018090AB
:100B20005F0290906002A0906102B09062026C1926
:100B30007D098E099F0986169706A806B90608F44E
:100B400042C08091BC0083FDD8CF85EC8093BC006F
:100B50000E9463016B017C0180915D02813009F488
:100B6000BDC080915A028C1710F4C0915A02A9E3BB
:100B7000B2E0E5E1F2E080E08C1751F19D919193B4
:100B80008F5FFACF80915F0290916002A091610225
:100B9000B0916202892B8A2B8B2B09F489CF0E949A
:100BA000630180905F0290906002A0906102B0901B
:100BB00062026C197D098E099F0986169706A806A0
:100BC000B90608F075CF80915E020E945A02C0E01B
:100BD00010923602C093350280E0C017110608F467
:100BE0006EC00E949F00982F92959770CAE08F70F8
:100BF0009C9F800D112480939E020E949F00982F3D
:100C0000929597708F709C9F800D112480939F0206
:100C10000E949F00D82F182F107486FF81C08F71FB
:100C20008093A0028091A002982F92959F70CAE0B5
:100C30008F709C9F800D11248093A0020E949F00C2
:100C4000982F92959F708F709C9F800D1124809398
:100C5000A4020E949F00982F92959F708F709C9F76
:100C6000800D11248093A1020E949F0084FB99278C
:100C700090F98F709C9F800D11248093A2020E9496
:100C80009F00982F92959F708F709C9F800D1124CC
:100C90008093A3028FEF9FE79093A6028093A50213
:100CA0008091A702813009F048C00E949F0084FF14
:100CB0003BC087FD37C08FEF8093B20281E0DF91A8
:100CC000CF911F910F91FF90EF90DF90CF90BF9049
:100CD000AF909F908F90089585EE38CF80915F02FE
:100CE00090916002A0916102B0916202892B8A2BDF
:100CF0008B2B09F431CF0E94630180905F029090AA
:100D00006002A0906102B09062026C197D098E09A8
:100D10009F0986169706A806B90608F01DCF53CF7F
:100D20008F737ECF8EEFC8CF83709927019711F410
:100D300080E1C2CF1092B202C1CF1092A80280E827
:100D40008093AD020E949F00282F221F2227221F7E
:100D50009091A802922B9093A802982F9295977049
:100D60008F709C9F800D11248093A9020E949F0088
:100D70009C01B6E035952795BA95E1F722709091E0
:100D8000A802292B2093A802982F929597708F7014
:100D90009C9F800D11248093AA020E949F009C01B9
:100DA00005E0359527950A95E1F724709091A80202
:100DB000292B2093A802982F929593708F709C9F57
:100DC000800D11248093AB020E949F009C0144E09F
:100DD000359527954A95E1F728703091A802232B85
:100DE000322F3F7009F4ACC02093A802982F92953F
:100DF0009370CAE08F709C9F800D11248093AC0289
:100E00000E949F009C0176E0359527957A95E1F741
:100E100022709091AD02292B2093AD02982F9295CC
:100E200097708F709C9F800D11248093AE020E945A
:100E30009F009C01E5E035952795EA95E1F7247040
:100E40009091AD02292B2093AD02982F929593702B
:100E50008F709C9F800D11248093AF020E949F0091
:100E60009C01F4E035952795FA95E1F728703091CB
:100E7000AD02232B322F3E7009F46AC02093AD02DD
:100E8000982F9E718F70890F8093B0020E949F00EF
:100E9000C82F82FF68C09EEF9093B20280FF60C0AF
:100EA0009091A80290629093A80281FF61C0809106
:100EB000AD0280628093AD020E949F00C7FD5AC0C0
:100EC0008093B302112329F08091B3028062809352
:100ED000B302D5FF05C08091B30280618093B30255
:100EE0000E949F0087FD48C08093B1020E949F002E
:100EF000EC010E949F009E01220F331F220F331F1F
:100F00002C7F337056E0959587955A95E1F783705D
:100F10009927822B932BC7FD31C09093A602809313
:100F2000A5022091A5023091A60249E1429FC0018D
:100F3000439F900D11249093A6028093A502BECEEC
:100F4000AC0155954795559547954071242B4CCF4D
:100F5000AC0155954795559547954071242B8ECFFB
:100F60001092A802A2CF88718093B2021092A802B8
:100F700080E8A0CF8064A4CF8150B6CF9C6F01974A
:100F8000CCCF0F931F93CF938C01C62F0E94DA030F
:100F90006C2F6460C8010E94DA036C2F6B7FC8015C
:100FA0000E94DA0383EC90E00197F1F7CF911F9153
:100FB0000F9108950F931F93CF93DF938C01D62F3A
:100FC000C42F607F642B0E94C10780E1D89FB001CD
:100FD00011246C2BC801DF91CF911F910F910C94BC
:100FE000C10741E00E94DA0781E090E0089541E006
:100FF000682F88EB92E00E94DA0781E090E0089584
:10100000CF92DF92EF92FF92CF93DF936C01092E84
:10101000000CEE08FF0897FF17C08DE20E94F7074B
:10102000EC0166277727CB016C197D098E099F0992
:101030004AE00E94D2048C0F9D1FDF91CF91FF9058
:10104000EF90DF90CF9008954AE0C701B601DF919D
:10105000CF91FF90EF90DF90CF900C94D204FF924D
:101060000F931F93CF93DF93062F142FC22FDAE035
:101070006D2F0E94D30EF92E082E000C990B0E94A2
:1010800000088F2DFF0C990B0E9400088FE20E9430
:10109000F707802F6D2F0E94D30E092F082E000C0A
:1010A000990B0E940008802F000F990B0E940008E6
:1010B0008FE20E94F707812F6D2F0E94D30ED92F48
:1010C000082E000C990B0E9400088D2FDD0F990B44
:1010D0000E9400088EE891E00E9420052C2FCC0F82
:1010E000330B2150310947E0429FC001439F900DCF
:1010F000112480509F4FDF91CF911F910F91FF904E
:101100000C942005FF920F931F93CF93DF93062F2C
:10111000142FD22FCAE06C2F0E94D30EF92E082E66
:10112000000C990B0E9400088F2DFF0C990B0E9458
:1011300000088AE30E94F707802F6C2F0E94D30ECD
:10114000092F082E000C990B0E940008802F000F19
:10115000990B0E9400088AE30E94F707812F6C2FE9
:101160000E94D30EC92F082E000C990B0E94000874
:101170008C2FCC0F990B0E940008DD2301F18BE826
:1011800091E00E9420058091A7028130A9F0809112
:10119000A5029091A60264E670E00E94E10ECB01E8
:1011A0000E94000860E088EB92E0DF91CF911F91F0
:1011B0000F91FF900C94F1078FEF9FE7ECCFDF9139
:1011C000CF911F910F91FF900895CF93DF93CDB7EB
:1011D000DEB728970FB6F894DEBF0FBECDBF98E0FC
:1011E000E1E4F1E0DE01119601900D929A95E1F7AC
:1011F0009091C002981708F48FEF90E0880F991F24
:1012000021E030E02C0F3D1F820F931FFC01608115
:10121000606840E088EB92E028960FB6F894DEBF55
:101220000FBECDBFDF91CF910C94DA07CF93C82FBB
:1012300080E00E94E50887E691E00E94200581E0B9
:101240000E94E5088EE791E0C13031F085E791E03A
:10125000C23011F487E891E0CF910C9420051F93E0
:10126000CF93DF9380E00E941609C0910402D091D1
:1012700006021091080286E992E00E94E9018111BC
:1012800015C020E04C2F6D2F812F0E94820860E452
:1012900074E086E992E00E94F30161E374E083E97F
:1012A00092E0DF91CF911F910C94F30183E992E0DA
:1012B0000E94E901882329F3EACFCF93C82F80E069
:1012C0000E94E50880E991E00E94200581E00E94EB
:1012D000E50885EA91E0C23051F089EA91E0C33037
:1012E00031F08DE991E0C13011F481EA91E0CF91C4
:1012F0000C9420050F931F93CF93DF9380E00E94FF
:101300005D09C0913901D0913F0110913D010091DB
:101310003B0186E992E00E94E901811116C02C2F61
:101320004D2F612F802F0E942F0862EC74E086E918
:1013300092E00E94F30162EB74E083E992E0DF91B6
:10134000CF911F910F910C94F30183E992E00E94D9
:10135000E901882321F3E9CF40E061E088EB92E0E6
:101360000E94DA078BE39FE10197F1F78091C102B8
:10137000882319F080E00C94E508089580910A0212
:1013800090910B02019690930B0280930A02813098
:1013900019F0853069F108950E94AC090E942D056D
:1013A0008091A10290E090933C0180933B01809159
:1013B000A20290E090933E0180933D018091A302B0
:1013C00090E09093400180933F018091A40290E0CF
:1013D00090933A01809339010E947A092091390152
:1013E00040913F0160913D0180913B010C942F0899
:1013F0000E94AC090E942D058091A00290E090937C
:1014000009028093080280919F0290E09093070266
:101410008093060280919E0290E090930502809353
:1014200004020E942F0920E040910402609106020C
:10143000809108020C94820885ED8093BC00809115
:101440005F0290916002A0916102B09162020796E2
:10145000A11DB11D23E0B695A795979587952A956F
:10146000D1F72091BC0024FD03C010925D020895C5
:1014700040915F025091600260916102709162023E
:10148000452B462B472B69F30097A105B10541F089
:101490002AE22A95F1F700C00197A109B109E1CF2D
:1014A00080915E020C945A021F920F920FB60F9217
:1014B00011242F933F938F939F93AF93BF9380916A
:1014C0000D0290910E02A0910F02B0911002309186
:1014D0000C0223E0230F2D3758F50196A11DB11DF5
:1014E00020930C0280930D0290930E02A0930F02A2
:1014F000B09310028091110290911202A0911302F8
:10150000B09114020196A11DB11D80931102909318
:101510001202A0931302B0931402BF91AF919F9156
:101520008F913F912F910F900FBE0F901F901895A4
:1015300026E8230F0296A11DB11DD2CF1F920F9254
:101540000FB60F9211242F933F934F935F936F9396
:101550007F938F939F93AF93BF93EF93FF9380916C
:10156000B900887F803609F44AC0F0F5883209F462
:10157000A7C018F5803109F49BC0B8F4882309F49A
:10158000F9C0883009F494C0FF91EF91BF91AF91F9
:101590009F918F917F916F915F914F913F912F918B
:1015A0000F900FBE0F901F901895883109F488C0D6
:1015B000803251F780935B0214C0803409F49DC0DF
:1015C00040F48033B9F38833F9F680935B0285ECFD
:1015D000B0C0803509F485C0883509F496C08834D8
:1015E00099F60E941C0AD0CF883909F48CC038F5CE
:1015F000883729F050F4883611F0803729F683E0D7
:1016000080935D021092FF0157C0883809F47BC0B7
:10161000803919F0803809F0B7CF8091FF0180320E
:1016200008F071C0E091FF0181E08E0F8093FF010F
:101630008091BB00F0E0E152FE4F80833DC0803BD3
:1016400039F0E0F4803A09F479C0883A09F09CCF87
:1016500084E080935D021092DE011092DD01E09142
:101660000202F091030209958091DD0181110FC002
:1016700081E08093DD011092BD0109C0803C09F436
:10168000A6CF883C09F4A3CF883B09F07DCFE09139
:10169000DE0181E08E0F8093DE01F0E0E354FE4F27
:1016A00080818093BB009091DE018091DD0129C093
:1016B000809138028093BB0085EC8093BC0064CF9E
:1016C00090915A0280915902981758F5E0915A0268
:1016D00081E08E0F80935A02F0E0E75CFD4F80813D
:1016E000E9CFE0915A0281E08E0F80935A028091F7
:1016F000BB00F0E0E75CFD4F808390915A0280913F
:1017000059029817C8F285E8D8CFE0915A0281E0D3
:101710008E0F80935A028091BB00F0E0E75CFD4F92
:10172000808380915C0281115CCF81E080933702DD
:1017300084EA8093BC0010925D0226CF85EC8093F2
:10174000BC0010925D028091FF01803230F4E09184
:10175000FF01F0E0E152FE4F10826091FF0170E066
:10176000E0910002F09101028FED91E00995109255
:10177000FF010ACF10925B0234CFE7E8F2E0138258
:10178000128288EE93E0A0E0B0E084839583A68384
:10179000B7838DE491E091838083E8EBF2E01382DC
:1017A0001282118687E2848380E1828782E08387C8
:1017B00014868FE591E091838083ECE9F2E0128258
:1017C0001382148215821682178210868FE097E2A8
:1017D0009287818783E0838714861586168617860D
:1017E000108A80E8818B128A138A148A158A8EEFF8
:1017F000868B178A88E690E091838083E9E9F2E09E
:1018000081E0828325E030E031832083E6E9F2E065
:10181000828323E030E031832083E3E9F2E08283B6
:1018200084E090E0918380830895789484B5826009
:1018300084BD84B5816084BD85B5826085BD85B574
:10184000816085BD80916E00816080936E001092F2
:10185000810080918100826080938100809181006D
:1018600081608093810080918000816080938000FE
:101870008091B10084608093B1008091B00081605C
:101880008093B00080917A00846080937A00809188
:101890007A00826080937A0080917A0081608093E0
:1018A0007A0080917A00806880937A001092C1005B
:1018B0001092360210923502109264021092860243
:1018C0000E943C028AEB91E0909303028093020213
:1018D0008BEB91E090930102809300021092BD0285
:1018E0008091C302823018F098E09093BD028093FB
:1018F000C00262E370E080E090E00E9488016091A5
:10190000C40288EB92E00E94DA0368EE73E080E0A4
:1019100090E00E94880160E388EB92E00E94C1079A
:10192000CBE4D6E4CE010197F1F760E388EB92E0D7
:101930000E94C1072197F1F760E388EB92E00E94D3
:10194000C10783E592E00197F1F760E288EB92E04E
:101950000E94C1076091BD02606240E088EB92E0A6
:101960000E94DA0784E08093BE0240E06CE088EBDE
:1019700092E00E94DA070E94AC0982E08093BF02E5
:1019800040E066E088EB92E00E94DA0740E062E027
:1019900088EB92E00E94DA078BE39FE10197F1F771
:1019A00088E08093C40260E088EB92E00E94DA0352
:1019B00040E060E488EB92E00E94DA07C1E3D1E006
:1019C00009E311E0699188EB92E00E94F1070C179E
:1019D0001D07C1F710926402109286020E943C0219
:1019E00060E0809199020E94320160E0809196024D
:1019F0000E94320160E0809199020E94320161E010
:101A000086E00E94320161E087E00E94320161E0DD
:101A100088E00E94320161E086E00E94040161E0FA
:101A200087E00E94040161E088E00E940401D1E0A7
:101A3000CAE06EEB79E089E992E00E94F301E0915F
:101A40000A02E83008F005C10E2E000CFF0BE55D20
:101A5000F24F0C94170F330D600D630D8E0DB50D05
:101A6000DC0DDF0D040E0E942D0580E00E94E508CC
:101A70002091A4024091A3026091A2028091A10250
:101A80008093B6029091B702891721F08093B70234
:101A90000E942F0881E00E94E50840919E0260911B
:101AA0009F028091A0024093B4029091B502491721
:101AB00009F4BFCF4093B50221E00E948208B9CF5C
:101AC0000E947A09B6CF81E00E945D091091390128
:101AD00000913F01F0903D01E0903B0186E992E0EA
:101AE0000E94E901811113C0212F402F6F2D8E2DEF
:101AF0000E942F0862EA74E086E992E00E94F301F6
:101B000062E974E083E992E00E94F30192CF83E9F5
:101B100092E00E94E901882339F3ECCF82E00E9431
:101B20005D091091390100913F01F0903D01E09075
:101B30003B0186E992E00E94E90181110FC0212F4B
:101B4000402F6F2D8E2D0E942F0862E874E086E9E9
:101B500092E00E94F30162E774E0D4CF83E992E05F
:101B60000E94E901882359F3F0CF83E00E945D09C8
:101B70001091390100913F01F0903D01E0903B014F
:101B800086E992E00E94E90181110FC0212F402FC8
:101B90006F2D8E2D0E942F0862E674E086E992E098
:101BA0000E94F30162E574E0ADCF83E992E00E9408
:101BB000E901882359F3F0CF0E942F093ACF81E041
:101BC0000E9416091091040200910602F09008028A
:101BD00086E992E00E94E90181110FC020E0412FC7
:101BE000602F8F2D0E9482086FE174E086E992E0F9
:101BF0000E94F30160E174E085CF83E992E00E94E6
:101C0000E901882359F3F0CF82E00E941609109170
:101C1000040200910602F090080286E992E00E9418
:101C2000E90181110FC020E0412F602F8F2D0E940C
:101C300082086EEF73E086E992E00E94F3016FEE96
:101C400073E060CF83E992E00E94E901882359F3B1
:101C5000F0CF10920B0210920A020E94AC09109170
:101C60003F0100913D01F0903B01E0903901D0909F
:101C70000802C0900602B090040280919C02D093AA
:101C8000630280938502109264021092860290E0B3
:101C900080E00E94D5038B2D6C2F0E94C70E829589
:101CA000807F682F690F87E892E00E94A6038C2D41
:101CB0006C2F0E94C70E8295807F682F690F87E87E
:101CC00092E00E94A6038D2D6C2F0E94C70E829574
:101CD000807F682F690F87E892E00E94A6038E2D0F
:101CE0006C2F0E94C70E8295807F682F690F87E84E
:101CF00092E00E94A6038F2D6C2F0E94C70E829542
:101D0000807F682F690F87E892E00E94A603802FEA
:101D10006C2F0E94C70E8295807F890F806890E0AB
:101D20000E94D503812F6C2F0E94C70E8295807F61
:101D3000682F690F87E892E00E94A6030E947B0249
:101D400080919C02D093630280938502109264027A
:101D5000109286028FE090E00E94D5030E947B02E1
:101D60008DEA91E00E94200568EE73E080E090E04B
:101D70000E9488010E94AC092091A4024091A30214
:101D80006091A2028091A1020E942F0852CE991B5D
:101D900079E004C0991F961708F0961B881F7A9562
:101DA000C9F78095089587FB082E062687FD819543
:101DB00067FD61950E94C70E0EF4919507FC819511
:101DC000089597FB072E16F4009407D077FD09D0ED
:101DD0000E941D0F07FC05D03EF4909581959F4F02
:101DE0000895709561957F4F0895A1E21A2EAA1B60
:101DF000BB1BFD010DC0AA1FBB1FEE1FFF1FA217BB
:101E0000B307E407F50720F0A21BB30BE40BF50BB7
:101E1000661F771F881F991F1A9469F76095709540
:101E2000809590959B01AC01BD01CF010895EE0F07
:101E3000FF1F0590F491E02D0994AA1BBB1B51E1F3
:101E400007C0AA1FBB1FA617B70710F0A61BB70B2A
:101E5000881F991F5A95A9F780959095BC01CD01CF
:061E60000895F894FFCF85
:101E66004D494E4747550053454E494E2000534570
:101E76004C41534100524142552020004B414D49AF
:101E86005320004A554D4154200053414254552099
:101E9600000609090600000000010001000100011A
:101EA60000000040001400540000000000A6037962
:101EB60003EC03620372038C00630300000000F16D
:101EC60007BC01EC03140253455454494E472043C2
:101ED6004C4F434B00486F757220202020004D69FF
:101EE6006E20202020200053656320202020200023
:101EF60053455454494E47204441544500444420D8
:101F0600004D4D2000595920004457200053455498
:0C1F160054494E472053415645440000FA
:00000001FF
